{
  "contractName": "GameJam",
  "abi": [
    {
      "constant": true,
      "inputs": [],
      "name": "balance",
      "outputs": [
        {
          "internalType": "uint256",
          "name": "",
          "type": "uint256"
        }
      ],
      "payable": false,
      "stateMutability": "view",
      "type": "function"
    },
    {
      "constant": true,
      "inputs": [
        {
          "internalType": "address",
          "name": "",
          "type": "address"
        }
      ],
      "name": "competitors",
      "outputs": [
        {
          "internalType": "string",
          "name": "",
          "type": "string"
        }
      ],
      "payable": false,
      "stateMutability": "view",
      "type": "function"
    },
    {
      "constant": true,
      "inputs": [],
      "name": "stage",
      "outputs": [
        {
          "internalType": "enum GameJam.Stages",
          "name": "",
          "type": "uint8"
        }
      ],
      "payable": false,
      "stateMutability": "view",
      "type": "function"
    },
    {
      "inputs": [
        {
          "internalType": "uint256",
          "name": "_balance",
          "type": "uint256"
        }
      ],
      "payable": true,
      "stateMutability": "payable",
      "type": "constructor"
    },
    {
      "anonymous": false,
      "inputs": [
        {
          "indexed": true,
          "internalType": "address",
          "name": "account",
          "type": "address"
        }
      ],
      "name": "GameJamAdminAdded",
      "type": "event"
    },
    {
      "anonymous": false,
      "inputs": [
        {
          "indexed": false,
          "internalType": "address",
          "name": "competitor",
          "type": "address"
        }
      ],
      "name": "CompetitorAdded",
      "type": "event"
    },
    {
      "anonymous": false,
      "inputs": [
        {
          "indexed": false,
          "internalType": "uint256",
          "name": "startTime",
          "type": "uint256"
        }
      ],
      "name": "GameJameStarted",
      "type": "event"
    },
    {
      "anonymous": false,
      "inputs": [
        {
          "indexed": false,
          "internalType": "address",
          "name": "winner",
          "type": "address"
        }
      ],
      "name": "WinnerDeclared",
      "type": "event"
    },
    {
      "anonymous": false,
      "inputs": [
        {
          "indexed": false,
          "internalType": "address",
          "name": "winner",
          "type": "address"
        }
      ],
      "name": "GameJamFinished",
      "type": "event"
    },
    {
      "constant": true,
      "inputs": [
        {
          "internalType": "address",
          "name": "account",
          "type": "address"
        }
      ],
      "name": "isGameJamAdmin",
      "outputs": [
        {
          "internalType": "bool",
          "name": "",
          "type": "bool"
        }
      ],
      "payable": false,
      "stateMutability": "view",
      "type": "function"
    },
    {
      "constant": false,
      "inputs": [
        {
          "internalType": "address",
          "name": "competitor",
          "type": "address"
        },
        {
          "internalType": "string",
          "name": "ipfsHash",
          "type": "string"
        }
      ],
      "name": "addCompetitor",
      "outputs": [],
      "payable": false,
      "stateMutability": "nonpayable",
      "type": "function"
    },
    {
      "constant": false,
      "inputs": [],
      "name": "start",
      "outputs": [],
      "payable": true,
      "stateMutability": "payable",
      "type": "function"
    },
    {
      "constant": false,
      "inputs": [
        {
          "internalType": "address",
          "name": "winner",
          "type": "address"
        }
      ],
      "name": "finish",
      "outputs": [],
      "payable": true,
      "stateMutability": "payable",
      "type": "function"
    },
    {
      "constant": false,
      "inputs": [
        {
          "internalType": "address payable",
          "name": "winner",
          "type": "address"
        }
      ],
      "name": "payoutWinner",
      "outputs": [],
      "payable": true,
      "stateMutability": "payable",
      "type": "function"
    }
  ],
  "bytecode": "0x60806040526000600160006101000a81548160ff0219169083600281111561002357fe5b021790555060405161111c38038061111c8339818101604052602081101561004a57600080fd5b8101908080519060200190929190505050806000819055506100713361007760201b60201c565b50610294565b61008f8160026100d560201b610c901790919060201c565b8073ffffffffffffffffffffffffffffffffffffffff167f9d667829fd9a3d77e814b7334ea10a9442f6f29357d304db86d1fa5f4b305a2460405160405180910390a250565b6100e582826101b660201b60201c565b15610158576040517f08c379a000000000000000000000000000000000000000000000000000000000815260040180806020018281038252601f8152602001807f526f6c65733a206163636f756e7420616c72656164792068617320726f6c650081525060200191505060405180910390fd5b60018260000160008373ffffffffffffffffffffffffffffffffffffffff1673ffffffffffffffffffffffffffffffffffffffff16815260200190815260200160002060006101000a81548160ff0219169083151502179055505050565b60008073ffffffffffffffffffffffffffffffffffffffff168273ffffffffffffffffffffffffffffffffffffffff16141561023d576040517f08c379a00000000000000000000000000000000000000000000000000000000081526004018080602001828103825260228152602001806110fa6022913960400191505060405180910390fd5b8260000160008373ffffffffffffffffffffffffffffffffffffffff1673ffffffffffffffffffffffffffffffffffffffff16815260200190815260200160002060009054906101000a900460ff16905092915050565b610e57806102a36000396000f3fe60806040526004361061007b5760003560e01c8063b69ef8a81161004e578063b69ef8a814610217578063b7a076c614610242578063be9a65551461030c578063c040e6b8146103165761007b565b80630f6feac214610080578063305ec69e146100e95780633f986e6a1461012d5780636243637114610171575b600080fd5b34801561008c57600080fd5b506100cf600480360360208110156100a357600080fd5b81019080803573ffffffffffffffffffffffffffffffffffffffff16906020019092919050505061034f565b604051808215151515815260200191505060405180910390f35b61012b600480360360208110156100ff57600080fd5b81019080803573ffffffffffffffffffffffffffffffffffffffff16906020019092919050505061036c565b005b61016f6004803603602081101561014357600080fd5b81019080803573ffffffffffffffffffffffffffffffffffffffff169060200190929190505050610565565b005b34801561017d57600080fd5b506102156004803603604081101561019457600080fd5b81019080803573ffffffffffffffffffffffffffffffffffffffff169060200190929190803590602001906401000000008111156101d157600080fd5b8201836020820111156101e357600080fd5b8035906020019184600183028401116401000000008311171561020557600080fd5b9091929391929390505050610729565b005b34801561022357600080fd5b5061022c6108d9565b6040518082815260200191505060405180910390f35b34801561024e57600080fd5b506102916004803603602081101561026557600080fd5b81019080803573ffffffffffffffffffffffffffffffffffffffff1690602001909291905050506108df565b6040518080602001828103825283818151815260200191508051906020019080838360005b838110156102d15780820151818401526020810190506102b6565b50505050905090810190601f1680156102fe5780820380516001836020036101000a031916815260200191505b509250505060405180910390f35b61031461098f565b005b34801561032257600080fd5b5061032b610aae565b6040518082600281111561033b57fe5b60ff16815260200191505060405180910390f35b6000610365826002610ac190919063ffffffff16565b9050919050565b6103753361034f565b6103ca576040517f08c379a0000000000000000000000000000000000000000000000000000000008152600401808060200182810382526046815260200180610db56046913960600191505060405180910390fd5b60018060028111156103d857fe5b600160009054906101000a900460ff1660028111156103f357fe5b14610449576040517f08c379a0000000000000000000000000000000000000000000000000000000008152600401808060200182810382526027815260200180610d6c6027913960400191505060405180910390fd5b6000600360008473ffffffffffffffffffffffffffffffffffffffff1673ffffffffffffffffffffffffffffffffffffffff16815260200190815260200160002080546001816001161561010002031660029004905014156104f6576040517f08c379a0000000000000000000000000000000000000000000000000000000008152600401808060200182810382526028815260200180610dfb6028913960400191505060405180910390fd5b7f2d66076f24af48812dc2fdd69ac3d62bc732d6766ce65fdf93a45675faba22bd82604051808273ffffffffffffffffffffffffffffffffffffffff1673ffffffffffffffffffffffffffffffffffffffff16815260200191505060405180910390a1610561610b9f565b5050565b61056e3361034f565b6105c3576040517f08c379a0000000000000000000000000000000000000000000000000000000008152600401808060200182810382526046815260200180610db56046913960600191505060405180910390fd5b60028060028111156105d157fe5b600160009054906101000a900460ff1660028111156105ec57fe5b14610642576040517f08c379a0000000000000000000000000000000000000000000000000000000008152600401808060200182810382526027815260200180610d6c6027913960400191505060405180910390fd5b6000805411801561066c57506000543073ffffffffffffffffffffffffffffffffffffffff163110155b15610725578173ffffffffffffffffffffffffffffffffffffffff166108fc6000549081150290604051600060405180830381858888f193505050501580156106b9573d6000803e3d6000fd5b50600080819055507f5bcf61278175a9b1e3c7cca2a9117825ebe2477d611ecc0f35575bc6629579f182604051808273ffffffffffffffffffffffffffffffffffffffff1673ffffffffffffffffffffffffffffffffffffffff16815260200191505060405180910390a15b5050565b600080600281111561073757fe5b600160009054906101000a900460ff16600281111561075257fe5b146107a8576040517f08c379a0000000000000000000000000000000000000000000000000000000008152600401808060200182810382526027815260200180610d6c6027913960400191505060405180910390fd5b602e8383905014610821576040517f08c379a00000000000000000000000000000000000000000000000000000000081526004018080602001828103825260108152602001807f696e636f7272656374206c656e6774680000000000000000000000000000000081525060200191505060405180910390fd5b8282600360008773ffffffffffffffffffffffffffffffffffffffff1673ffffffffffffffffffffffffffffffffffffffff168152602001908152602001600020919061086f929190610beb565b507f5c2db1fe8e7be28012487253743d81109ac5a3ffced6c0d2bd7db7bf65277bfb84604051808273ffffffffffffffffffffffffffffffffffffffff1673ffffffffffffffffffffffffffffffffffffffff16815260200191505060405180910390a150505050565b60005481565b60036020528060005260406000206000915090508054600181600116156101000203166002900480601f0160208091040260200160405190810160405280929190818152602001828054600181600116156101000203166002900480156109875780601f1061095c57610100808354040283529160200191610987565b820191906000526020600020905b81548152906001019060200180831161096a57829003601f168201915b505050505081565b6109983361034f565b6109ed576040517f08c379a0000000000000000000000000000000000000000000000000000000008152600401808060200182810382526046815260200180610db56046913960600191505060405180910390fd5b60008060028111156109fb57fe5b600160009054906101000a900460ff166002811115610a1657fe5b14610a6c576040517f08c379a0000000000000000000000000000000000000000000000000000000008152600401808060200182810382526027815260200180610d6c6027913960400191505060405180910390fd5b7f8191bc0927e9ff0bd2b5c4d0975cbe0a05c45afbf2ec01a0d3f176a997596aeb426040518082815260200191505060405180910390a1610aab610b9f565b50565b600160009054906101000a900460ff1681565b60008073ffffffffffffffffffffffffffffffffffffffff168273ffffffffffffffffffffffffffffffffffffffff161415610b48576040517f08c379a0000000000000000000000000000000000000000000000000000000008152600401808060200182810382526022815260200180610d936022913960400191505060405180910390fd5b8260000160008373ffffffffffffffffffffffffffffffffffffffff1673ffffffffffffffffffffffffffffffffffffffff16815260200190815260200160002060009054906101000a900460ff16905092915050565b60018060009054906101000a900460ff166002811115610bbb57fe5b016002811115610bc757fe5b600160006101000a81548160ff02191690836002811115610be457fe5b0217905550565b828054600181600116156101000203166002900490600052602060002090601f016020900481019282601f10610c2c57803560ff1916838001178555610c5a565b82800160010185558215610c5a579182015b82811115610c59578235825591602001919060010190610c3e565b5b509050610c679190610c6b565b5090565b610c8d91905b80821115610c89576000816000905550600101610c71565b5090565b90565b610c9a8282610ac1565b15610d0d576040517f08c379a000000000000000000000000000000000000000000000000000000000815260040180806020018281038252601f8152602001807f526f6c65733a206163636f756e7420616c72656164792068617320726f6c650081525060200191505060405180910390fd5b60018260000160008373ffffffffffffffffffffffffffffffffffffffff1673ffffffffffffffffffffffffffffffffffffffff16815260200190815260200160002060006101000a81548160ff021916908315150217905550505056fe46756e6374696f6e2063616e6e6f742062652063616c6c656420617420746869732074696d652e526f6c65733a206163636f756e7420697320746865207a65726f206164647265737347616d654a616d41646d696e20726f6c652072657175697265643a2063616c6c657220646f6573206e6f742068617665207468652047616d654a616d41646d696e20726f6c6557696e6e65722073686f756c642062652061207265676973746572656420636f6d70657469746f72a265627a7a72315820dda6f25617140376f8b970acd0e8f849bf022d4204fe1f9420b4adcaae7e039764736f6c634300050b0032526f6c65733a206163636f756e7420697320746865207a65726f2061646472657373",
  "source": "pragma solidity ^0.5.11;\n\nimport \"openzeppelin-solidity/contracts/access/Roles.sol\";  //Import Roles to implement custom Role Based Access Control\n\ncontract GameJam {\n  using Roles for Roles.Role;\n\n  enum Stages {\n        Registration,\n        InProgress,\n        Finished\n    }\n  uint public balance;\n  \n\n  //Set the initial Stage\n  Stages public stage = Stages.Registration;\n\n  //Define the roles\n  Roles.Role private admins;\n\n  // Modifier used to restrict access unless a given Stage is active\n  modifier onlyAtStage(Stages _stage) {\n      require(\n          stage == _stage,\n          \"Function cannot be called at this time.\"\n      );\n      _;\n  }\n  //Advance the state of the contract to the next stage\n  function nextStage() internal {\n      stage = Stages(uint(stage) + 1);\n  }\n\n  // This modifier moves to the next stage\n  // after the function is done.\n  modifier transitionNext()\n  {\n      _;\n      nextStage();\n  }\n\n  //Role Setup\n  // On Deploy, the sender of the transaction will be added as a admin\n  // Further admins could be added with a Role restricted _addGameJamAdmin() function\n  //Modifier for Admins\n  modifier onlyGameJamAdmin() {\n      require(isGameJamAdmin(msg.sender), \"GameJamAdmin role required: caller does not have the GameJamAdmin role\");\n      _;\n  }\n  // Function to check that the address is a valid admin\n  function isGameJamAdmin(address account) public view returns (bool) {\n        return admins.has(account);\n  }\n  function _addGameJamAdmin(address account) internal {\n    admins.add(account);\n    emit GameJamAdminAdded(account);\n  }\n\n  mapping(address => string) public competitors;\n\n  event GameJamAdminAdded(address indexed account);\n  event CompetitorAdded(address competitor);\n  event GameJameStarted(uint startTime);\n  event WinnerDeclared(address winner);\n  event GameJamFinished(address winner);\n\n  // Create a GameJam with a _balance\n  // which will be the amount to be distributed to winners\n  constructor(uint _balance) public payable {\n    balance = _balance;\n    _addGameJamAdmin(msg.sender);\n  }\n\n  function addCompetitor(\n    address competitor,\n    string calldata ipfsHash\n  )\n    external\n    onlyAtStage(Stages.Registration)\n  {\n    require(bytes(ipfsHash).length == 46, \"incorrect length\");\n    competitors[competitor] = ipfsHash;\n\n    emit CompetitorAdded(competitor);\n  }\n\n  // finish function is a payable used to declare the winner via their address\n  // the function should only be called able when the GameJam is in Registration\n  function start() external payable\n    onlyGameJamAdmin //Only an admin can start the GameJam\n    onlyAtStage(Stages.Registration) //GameJam can only be start when in Registration State\n    transitionNext {\n      emit GameJameStarted(now);\n    }\n\n  // finish function is a payable used to declare the winner via their address\n  // the function should only be called able when the GameJam is in Progress\n  function finish(address winner) external payable\n    onlyGameJamAdmin //Only an admin can finish the GameJam\n    onlyAtStage(Stages.InProgress)\n    transitionNext {\n      //Ensure the winner is a registered competitor. The mapping result is initialised \"\" so if winner is not in competitors then 0x0 is returned\n      require(\n        bytes(competitors[winner]).length != 0,\n        \"Winner should be a registered competitor\"\n        );\n      emit WinnerDeclared(winner);\n    }\n\n  // payoutWinner is used after the Jam to payout the declared winner\n  // and ultimately finish the GameJam.\n  function payoutWinner(address payable winner) external payable\n    onlyGameJamAdmin //Only an admin can start the GameJam\n    onlyAtStage(Stages.Finished) {\n      \n      // If there are prizes to distribute\n      if (balance > 0 && address(this).balance >= balance) {\n        //Send the winner their prize and progress the state to Finished Stage\n        winner.transfer(balance);\n        balance = 0;\n        emit GameJamFinished(winner);\n      }\n  }\n}",
  "sourcePath": "/home/cael/git/shitcoin/game-jam-smart-contracts/contracts/GameJam.sol",
  "compiler": {
    "name": "solc",
    "version": "0.5.11+commit.c082d0b4.Emscripten.clang"
  },
  "schemaVersion": "3.0.11",
  "updatedAt": "2019-10-15T20:29:45.073Z",
  "devdoc": {
    "methods": {}
  },
  "userdoc": {
    "methods": {}
  }
}